:0300000002059C5A
:0C059C00787FE4F6D8FD7581190205E3B4
:10062800C2A58B807F017E00120651D2A77F057E6E
:1006380000120651C2A7EBC454F0F5807F017E007A
:09064800120651D2A77F057E00C5
:10065100D3EF9400EE9400400F7DC77C01DCFEDDFA
:08066100FAEF1F70EB1E80E8A8
:01066900226E
:0C07C000AB07C2A7C2A6120628C2A722DF
:0C07CC00AB07C2A7D2A6120628C2A722C3
:100742007F321207C07F281207C07F0C1207C07FBA
:0E075200061207C07F011207C07F800207C099
:0507F200000000000002
:0907D80007132B3030302E3030B5
:1006EA001207427F881207C07F431207CC1207AE57
:1006FA0012079712044FE4FF74132FF8E6F59930A6
:10070A0099FDC2990FBF07F07F327E0012077E80E3
:01071A00DFFF
:04044F008E088F097B
:10045300780A7C007D007BFF7A0779F27E007F05B6
:10046300120390C3E50864809480501D7F801207B7
:10047300C07F2D1207CC75132DE5091509700215E0
:10048300086309FF6308FF800D7F801207C07F2B7D
:100493001207CC75132BAC08AD09EC1202068F12B0
:1004A3008E118D108C0FE4FFFE7DC87C40AB12AA29
:1004B30011A910A80F1200FBE4FBFAF9783F120010
:1004C3000A12023F8E088F09AE08AF097C277D1000
:1004D3001203B68F0AAE08AF097C277D101203B64C
:1004E3007E037FE8CFCDCFCECCCE1203B68F0BAE3B
:1004F30008AF097C037DE81203B67E007F64CFCD8D
:10050300CFCECCCE1203B68F0CAE08AF097C007DE4
:10051300641203B67E007F0ACFCDCFCECCCE1203BA
:10052300B68F0DAE08AF097C007D0A1203B68D0E9F
:10053300E50A2430F514E50B2430F515E50C2430D9
:10054300F516E50D2430F518E50E2430F5197F82F4
:100553001207C0E50A2430FF1207CC7F831207C0BD
:10056300E50B2430FF1207CC7F841207C0E50C246F
:1005730030FF1207CC7F851207C07F2E1207CC7F76
:10058300861207C0E50D2430FF1207CC7F871207C0
:09059300C0E50E2430FF0207CC84
:1007AE00759850758920758780758DF3758BF3D28A
:0207BE008E2289
:10077E00D3EF9400EE9400400F7D267C82DCFEDDEC
:08078E00FAEF1F70EB1E80E87A
:010796002240
:10076000D3EF9400EE940040147D6E7C00ED1D707C
:0D077000011CED4C70F7EF1F70E61E80E3DA
:01077D002259
:10071B00C2B77B46AF031BEF70FAD2B7E4FB30B71F
:10072B00130BEBD3940540037F00227F017E001255
:06073B00076080EA7F0167
:010741002295
:0C066A0012071B7F017E001207607FCC8E
:10067600E4FBFAC2B7050AE50A70020509EF139210
:10068600B7750900750A06E50A150AAC0970021560
:10069600094C70F3D2B7EFC313FF0BBB00010AEB93
:0506A60064084A70CE5B
:0106AB00222C
:1006AC007D087C00C2B70FBF0000D2B70FBF00009F
:1006BC000FBF0000A2B7E433C43333335480FBE9DB
:1006CC00C3134BF97E007F04EF1FAA0670011E4A6C
:0D06DC0070F6ED1D70011CED4C70C9AF01F2
:0106E90022EE
:0807E20012066A7F440206764C
:0807EA0012066A7FBE020676CA
:10079700E4FFFE1207E21207EA1206AC8F08120600
:0607A700ACEFFEE508FFC7
:0107AD002229
:100003000202ABE86480F8E933E83360110460F07E
:10001300ED33EC337009E8FCE9FDEAFEEBFF220463
:1000230060DED3EB9FEA9EE99DE8C2E78CF0C2F75E
:1000330095F0400CE8CCF8E9CDF9EACEFAEBCFFB2A
:1000430012027685D0F05804700320D5B3E804700B
:10005300075002B2D50202B592D5EC0460F7E4CCA6
:10006300C0E0C398F8603B94186008400DD0E0FBF3
:1000730002028DE4FBFAC9FC8028E830E406E4C9F7
:10008300FBE4CAFCE830E305E4C9CACBFCE8540747
:100093006010F8C3E913F9EA13FAEB13FBEC13FC52
:1000A300D8F130F52FC3E49CFCEF9BFFEE9AFEEDF5
:1000B30099FDD0E0FBEF4E4D4C701222DB030202A0
:1000C300B2EC2CFCEF33FFEE33FEED33FDED30E706
:1000D300EB02028DEF2BFFEE3AFEED39FDD0E0FB94
:1000E30050130BBB00030202B5ED13FDEE13FEEF3D
:0800F30013FFEC13FC02028D67
:1000FB00EC4D6011E8497017ED33EC3304600DE4FF
:10010B00FCFFFEFD22E933E8330470F80202AB1268
:10011B00027658046009E4CC248150062850090269
:10012B0002B52840030202B2C0E0EB4A7044B9802A
:10013B0006D0E0FB0202A1EF4E701CBD8008EBFF66
:10014B00EAFEE9FD80EBE98DF0A4FEE5F00201E4A7
:10015B00E9CDF9EAFEEBFFEF89F0A4FCE5F0CE89DF
:10016B00F0A42EFFE435F0CD89F0A42DFEE435F09C
:10017B008067EF4E7005BD80D780C3EF8BF0A4ACCA
:10018B00F0EE8BF0A42CFCE435F0F8EF8AF0A42C05
:10019B00E5F038FCE433CB8DF0A42CFCE5F03BF818
:1001AB00EE8AF0A42CFCE5F038F8E433CF89F0A408
:1001BB002CFCE5F038CF3400CE89F0A42FFFE5F00E
:1001CB003EFEE433C98DF0A42EFEE5F039CD8AF066
:1001DB00A42FFFE5F03EFEE43DFD33D0E0FB5007DE
:1001EB000BBB000F0202B5EC2CFCEF33FFEE33FE22
:0601FB00ED33FD02028D50
:1002010075F020800E75F010800575F0087D007E78
:10021100007F003392D530D5031203ECEC3340104C
:10022100EF33FFEE33FEED33FDEC33FCD5F0ED2281
:0E023100E5F0247EA2D513CC92E7CDCEFF22BD
:10023F00EDD2E7CD33EC3392D524814006E4FFFEB7
:10024F00FDFC22FCE4CFCECDCC24E0501174FF8016
:10025F00EDC3CC13CCCD13CDCE13CECF13CF0470B3
:07026F00F030D5DE0203ECC4
:10027600E9D2E7C933E833F892D5EDD2E7CD33ECCE
:0702860033FC5002B2D52247
:10028D00EC30E7100FBF000C0EBE00080DBD0004D2
:10029D000BEB6014A2D5EB13FCED92E7FD2274FF7E
:1002AD00FCFDFEFF22E480F8A2D574FF13FC7D80D7
:0302BD00E480EFEB
:1005A8000206EAE493A3F8E493A34003F68001F279
:1005B80008DFF48029E493A3F85407240CC8C33354
:1005C800C4540F4420C8834004F456800146F6DF23
:1005D800E4800B01020408102040809007D8E47ED4
:1005E800019360BCA3FF543F30E509541FFEE49318
:1005F800A360010ECF54C025E060A840B8E493A3DF
:10060800FAE493A3F8E493A3C8C582C8CAC583CA09
:10061800F0A3C8C582C8CAC583CADFE9DEE780BEC1
:0107E1000017
:1002C000E709F608DFFA8046E709F208DFFA803E20
:1002D00088828C83E709F0A3DFFA8032E309F6080D
:1002E000DFFA8078E309F208DFFA807088828C8375
:1002F000E309F0A3DFFA806489828A83E0A3F60829
:10030000DFFA805889828A83E0A3F208DFFA804C02
:1003100080D280FA80C680D4806980F280338010D9
:1003200080A680EA809A80A880DA80E280CA803342
:1003300089828A83ECFAE493A3C8C582C8CCC583BA
:10034000CCF0A3C8C582C8CCC583CCDFE9DEE7808A
:100350000D89828A83E493A3F608DFF9ECFAA9F009
:10036000EDFB2289828A83ECFAE0A3C8C582C8CC5F
:10037000C583CCF0A3C8C582C8CCC583CCDFEADE78
:10038000E880DB89828A83E493A3F208DFF980CCDA
:1003900088F0EF60010E4E60C388F0ED2402B404D3
:1003A0000050B9F582EB2402B4040050AF2323457A
:0603B0008223900310738C
:1003B600C2D5EC30E709B2D5E4C39DFDE49CFCEE62
:1003C60030E715B2D5E4C39FFFE49EFE1203FAC3DD
:1003D600E49DFDE49CFC80031203FA30D507C3E4D8
:0603E6009FFFE49EFE22D1
:0E03EC00C3E49FFFE49EFEE49DFDE49CFC2222
:1003FA00BC000BBE0029EF8DF084FFADF022E4CCE7
:10040A00F875F008EF2FFFEE33FEEC33FCEE9DECAF
:10041A00984005FCEE9DFE0FD5F0E9E4CEFD22EDF5
:10042A00F8F5F0EE8420D21CFEADF075F008EF2F3F
:10043A00FFED33FD4007985006D5F0F222C398FD30
:05044A000FD5F0EA22CD
:00000001FF
